:020000040800F2
:10000000707302207D020008FB650008E15C0008B7
:10001000A76500088119000829BB0008000000003E
:10002000000000000000000000000000C501000802
:10003000214500080000000019020008559500083D
:10004000A1020008A1020008A1020008A102000804
:10005000A1020008A1020008A1020008A1020008F4
:100060004D450008A1020008A1020008A1020008F5
:10007000A1020008A1020008A1020008A1020008D4
:10008000A1020008A1020008A1020008A1020008C4
:10009000C91C0008A1020008A1020008A102000872
:1000A000A1020008A1020008A1020008A1020008A4
:1000B000A1020008A1020008A1020008A102000894
:1000C000A1020008A1020008A1020008A102000884
:1000D000A102000861A10008A102000845A20008D1
:1000E00023450008A1020008B9660008A102000823
:1000F000A1020008A1020008A1020008A102000854
:10010000A102000859730008A1020008A10200081A
:10011000A1020008A10200089D9A0008A10200089F
:10012000A1020008A1020008A10200081141000874
:10013000A1020008A1020008A1020008A102000813
:1001400041200008A1020008A1020008A9660008D9
:10015000A1020008A1020008A1020008BDA4000835
:10016000A1020008A1020008A1020008A1020008E3
:10017000A1020008A1020008A1020008000000007E
:10018000A1020008A1020008A1020008A1020008C3
:10019000A1020008A1020008A1020008A1020008B3
:1001A0000000000000000000A1020008DFF810D0ED
:1001B00000F082FD0048004765A30208AFF300800D
:1001C000707302202A4B19680868B0E8F04F80F37A
:1001D0000988BFF36F8F4FF0000080F311887047DC
:1001E0000000000006480068006880F3088862B6D6
:1001F00061B6BFF34F8FBFF36F8F00DF00BF00BF4B
:1002000008ED00E0DFF80C00016841F470010160C6
:10021000704700BF88ED00E0EFF30980BFF36F8FF8
:10022000134B1A681EF0100F08BF20ED108A20E94A
:10023000F04F106008B44FF0500080F31188BFF306
:100240004F8FBFF36F8F31F081F94FF0000080F3D3
:10025000118808BC19680868B0E8F04F1EF0100F4C
:1002600008BFB0EC108A80F30988BFF36F8F704726
:100270007C000020EFF3058070470000094801680A
:1002800041F4700101600848804708480047FEE7D4
:10029000FEE7FEE7FEE7FEE7FEE7FEE7FEE7FEE736
:1002A000FEE7000088ED00E069950008AD01000858
:1002B0009FED1A1AF5EE000A40EE010ABDEEE00AC3
:1002C000F5EEC00A10EE100AF1EE10FA38BF401E2B
:1002D00000EE100A1349F7EE001AB8EEC00A30EE2D
:1002E000C00ADFED0F0A20EE200AFCEEC00A10EE75
:1002F000900AC0F3080000EE900A01EB8000F8EECF
:10030000600A90ED011A70EE600A90ED000A71EE3D
:10031000E01A21EE800A00EE810A704783F9223E3E
:100320000000004494810308DFED190AB5EEC00A0D
:1003300060EE200ABDEEE01A11EE100AF1EE10FA9E
:1003400038BF401E00EE100A1349F7EE001AB8EE4F
:10035000C00A30EEC00ADFED0F0A60EE200ABCEEE4
:10036000E00A10EE100AC0F3080000EE100A01EBDC
:100370008000B8EE400A90ED011A70EEC00A90EDD0
:10038000000A71EEE01A21EE800A00EE810A704741
:1003900083F9223E00000044948103082DE9F05FB8
:1003A0000546002092469B468846064681464024E4
:1003B0001BE0284641464746224600F0F8FA5346DD
:1003C0005A46C01A914110D311461846224600F0F1
:1003D000DFFA2D1A67EB01084F4622460120002163
:1003E00000F0D6FA17EB00094E41201EA4F10104DB
:1003F000DFDC484631462A464346BDE8F09F10B54B
:1004000040EA01040346A40703D009E010C9121F03
:1004100010C3042AFAD203E011F8014B03F8014B90
:10042000521EF9D210BDD2B201E000F8012B491ED4
:10043000FBD270470022F6E710B513460A46044681
:100440001946FFF7F0FF204610BD10B5044604E042
:100450000B7800F8013B03B1491C521EF8D220462C
:1004600010BDCAB2401E10F8011F8A4202D00029F6
:10047000F9D100207047421C10F8011B0029FBD164
:10048000801A704710B5002200E0521C835C8C5C1F
:10049000A34201D1002BF8D1D8B2E1B2401A10BD6D
:1004A00030B504460020034600E05B1C934203D2B3
:1004B000E05CCD5C401BF8D030BD034611F8012B49
:1004C00000F8012B002AF9D11846704730B50546CF
:1004D0000020034600E05B1C934205D2EC5CC85C44
:1004E000201A01D1002CF6D130BD2DE9FE4F8046F7
:1004F00081EA0300C00F0C46009021F0004123F078
:100500000045B8EB0200A94105D24046214690467D
:100510001C460B46024623F00040104347D0270DEF
:10052000C7F30A00C3F30A510290401A0190402811
:100530006BDAC3F3130040F4801B0098924620B19D
:100540000023D2EB030A63EB0B0B01985946C0F171
:100550004002504600F01CFA06460D4650465946E9
:10056000019A00F034FA10EB08006141002487EA98
:10057000115284EAE7731A4340D0009A62B3019A99
:10058000012A4FEA075215DC001B61EB02014FF014
:10059000004202EA0752CDE90042001C41F58011F9
:1005A00032462B4600F0BAFA03B0BDE8F08F404661
:1005B0002146F9E7001B61EB0201001C41F58013A5
:1005C00000185B412018A2F5001747EB030140EA31
:1005D000D570B6196D4111E06D084FEA360645EA4F
:1005E000C0754FEA0752001B61EB0201001C41F588
:1005F000801149084FEA30000019514132462B461C
:1006000003B0BDE8F04F00F07ABA00980122400034
:100610000023D0EB020263EBE073009821464FEA1F
:10062000E074B8EB000061EB0401E9E783F00043FC
:100630005BE781F0004158E72DE9FE4F81EA0304B2
:1006400004F0004421F0004100944FF0000B23F02F
:10065000004350EA01045ED052EA03045BD0C3F3C6
:100660000A54C1F30A552C44A4F2F3340194A0FBBC
:100670000254C1F3130141F48011C3F3130343F493
:10068000801301FB024400FB034E840A970A44EAEC
:10069000815447EA8357A4FB076802958D0A05FB3E
:1006A00007854FEA932C04FB0C542705029D4FEA63
:1006B000065847EA1637B5EB08056EEB070C870EB0
:1006C000920E47EA811742EA8312A7FB0201B6EBBA
:1006D0000B0164EB00042B0D43EA0C335E1844EB72
:1006E0001C50DA465146E7FB0201C5F313044FEAFA
:1006F0000B3343EA14534FEA0432019C43EA0603E6
:10070000A4F10C040294009CCDE900B400F006FAB8
:1007100003B0BDE8F08F00200146F9E72DE9F04D68
:1007200081EA030404F0004B21F0004514464FF029
:10073000000A23F0004150EA050220D054EA0102E9
:100740001DD0C5F30A570246C5F31303C1F31300C6
:10075000C1F30A5640F4801543F48013A7EB060852
:10076000101BD64608F2FD3873EB050002D308F1E2
:10077000010801E092185B41B8F1000F03DA002094
:100780000146BDE8F08D00204FF4801106468446F6
:100790000EE0171B73EB050705D3121B63EB050374
:1007A00006434CEA010C49084FEA300092185B41BD
:1007B00050EA0107EDD152EA030012D082EA0400A8
:1007C00083EA0501084305D0101BAB4106D2012284
:1007D000002306E000224FF0004302E06FF0010228
:1007E00053101AEB06004CEB085110EB0A0041EBDA
:1007F0000B01BDE8F04D00F082B90EB5C10F80EAE3
:10080000E0700844CA07002140F233438DE80E002F
:100810000A460B4600F082F903B000BD0EB540F267
:10082000334102910021CDE900110A460B4600F048
:1008300075F903B000BD70B5C1F30A5201F000456F
:100840000024C1F3130140F2FF3341F480119A42B6
:1008500001DA002070BD40F233439A42A2F23342E3
:1008600003DC524200F0A3F800E090402C43F1D0AA
:10087000404270BDC1F30A5210B5C1F3130140F2FA
:10088000FF3341F480119A4201DA002010BD40F29A
:1008900033439A42A2F2334203DC524200F087F81B
:1008A00010BD904010BD00F0004230F000400AD072
:1008B000C10D01F56071C0F3160042EA0151C20892
:1008C00040071143704700200146704730B5041EB1
:1008D00071F1000404DB4FF00044404264EB01017D
:1008E000141E73F1000405DB1C464FF00043524216
:1008F00063EB04038B4208BF824230BD30B5041E57
:1009000071F1000404DB4FF00044404264EB01014C
:10091000141E73F1000405DB1C464FF000435242E5
:1009200063EB0403994208BF904230BD01F00043DD
:1009300030B421F0004150EA010206D00A0DA2F5C0
:100940006072C1F31301002A02DC30BC0020704742
:10095000440F44EAC104C100E01830BC00EBC250AF
:1009600000F096B830B50B46014600202022012445
:1009700009E021FA02F59D4205D303FA02F5491B6D
:1009800004FA02F52844151EA2F10102F1DC30BD83
:10099000202A04DB203A00FA02F10020704791403F
:1009A000C2F1200320FA03F3194390407047202A34
:1009B00004DB203A21FA02F00021704721FA02F309
:1009C000D040C2F120029140084319467047202AC6
:1009D00006DBCB17203A41FA02F043EAE07306E067
:1009E00041FA02F3D040C2F1200291400843194677
:1009F000704700000FB4002300B589B00CA9009126
:100A00000B996FF00042CB601E4B06931E4B079371
:100A10000423CDE901321D4A089202466B460020AC
:100A200000F0FEF909B05DF814FB70B586B006461B
:100A30004FF0FF300091CDE90101002015460C4632
:100A400004903246694604A8FFF7D4FF0246049892
:100A5000211825B108B1084600E020462860049816
:100A600000280DD0002A02DD0098884208D0081B1B
:100A70000094CDE901043246694604A8FFF7BAFFA5
:100A800006B070BD5910000877100008E50C00088A
:100A90000029A8BF7047401C490008BF20F0010092
:100AA000704710B4B0FA80FC00FA0CF050EA010470
:100AB00004BF10BC704749B1CCF1200421FA04F402
:100AC00011FA0CF118BF012121430843A3EB0C01DB
:100AD000CB1D4FEA00614FEA102042BF002010BC3E
:100AE000704700EBC35010440029A4BF10BC7047EE
:100AF000401C490008BF20F0010010BC704710B531
:100B0000141E73F1000408DA401C41F10001921830
:100B10005B411A4301D120F0010010BD2DE9F04DD9
:100B200092469B4611B1B1FA81F202E0B0FA80F22E
:100B300020329046FFF72CFF04460F4640EA0A0099
:100B400041EA0B0153465A46084313D0114653EA73
:100B5000010019D0C8F140025046FFF728FF0546B2
:100B60000E46504659464246FFF712FF084305D04D
:100B7000012004E020463946BDE8F08D0020054301
:100B800046EAE0762C4337430A986305E40AA0EB73
:100B900008000022FD0A44EA47540A3002D500202A
:100BA0000146E9E7010510196941DDE90845001929
:100BB0006941BDE8F04DA2E770B521F00043034361
:100BC0000CD0C1F30A550024D5EB040564EB0403F3
:100BD000D617AD1AB34102DB0020014670BD2018C4
:100BE00041EB025170BD2DE9F04D00231A461B1A4E
:100BF0008A4103DB00200146BDE8F08DC1F30A52B3
:100C0000C1F3130141F480154FF0000BD10702D15D
:100C100000186D41521E0027044640F2FF1138466D
:100C200001EB620A3E468046024600204FF48011E6
:100C3000FFF7BDFEC2197141BB1846EB0100B4EBD2
:100C4000030C75EB000C04D3E41A65EB00051746A2
:100C50000E46241908F101006D4180463428E3DD79
:100C6000F91946EB0600091BA84103D24FF0FF32E9
:100C7000134601E0002213461BEB070046EB0A5126
:100C8000BDE8F04DFFF73BBFC1F30A52C1F31301BA
:100C900040F2FF3341F480119A4202DA002001460B
:100CA000704740F233439A42A2F2334202DC52428E
:100CB000FFF77DBEFFF76CBE064C074D06E0E0680F
:100CC00040F0010394E8070098471034AC42F6D393
:100CD000FFF770FAF88E0308188F03080048704772
:100CE000AC8A030810B50446FFF7F8FF0068005D02
:100CF00000F0010010BD00002DE9FF4F087883B01F
:100D00009946FF2805D0491C2D2804D00024002036
:100D100008E000200BE00124F9E700EB800003EB82
:100D20004000491C0B78FF2BF7D104B1404200234F
:100D30000293147819461D462D2C01D02B2C04D17A
:100D4000521C2D2C13D000240294AA461478FF2C98
:100D50000FD00A25A3FB057801FB05814FF0000C9D
:100D600003FB0C11521CE3194AEB0101EEE70124CD
:100D7000EAE7814453EA010002D019F5C87F06DA98
:100D800003980021C0E9001107B0BDE8F08F0025ED
:100D9000AE4E2F46DFF8B882184600F07DF9CDE957
:100DA0000001B9F1000002DAC9F1000400E00446D4
:100DB0000023A74A1AEB030B42EB045A12E0E007A8
:100DC00007D02A46334638464146FFF735FC0746EA
:100DD00088462A46334610461946FFF72DFC05463D
:100DE0000E466410002CEAD1DDE90001B9F1000FD4
:100DF0005A46534606DAFFF791FC3A464346FFF758
:100E00008DFC05E0FFF718FC3A464346FFF714FC5B
:100E1000029A0AB181F00041039AC2E90001B3E7E6
:100E20002DE9FF4F1F468DB0D7E901464FF0FF383F
:100E30002E2045464FF000090B90B9696D1C0E98A5
:100E40008847396A824688470028F6D1BAF1FF3FC1
:100E50000AD024F4D064002E11DDBAF12B0F08D093
:100E6000BAF12D0F0BD102E0404611B08DE744F4EA
:100E70008064B9696D1C0E9888478246761E694663
:100E8000600501D52D2000E02B208DF8000001F138
:100E9000010B0DF1200809E0B9696D1C0E98884717
:100EA00082460F9844F40074761E0560002E02DD21
:100EB000BAF1300FF0D00B998A453ED144F080044E
:100EC00006E00F99681CA9F1010944F40074086058
:100ED000B9696D1C761E0E98884782463028F0D07E
:100EE0002BE00B998A4505D1200603D444F08004F9
:100EF000761E18E050460CF027FA08B30DF11301E6
:100F0000761E44F400748B4508D2AAF130000BF829
:100F1000010B200607D5A9F1010003E0200602D449
:100F200009F101008146A00502D50F99681C0860EF
:100F3000B9696D1C0E9888478246002ED1DC53E0BB
:100F4000002E51DDBAF1650F02D0BAF1450F4BD139
:100F5000A00549D5B9696D1C24F44074761E0E981D
:100F600088478246002E0CDD2B2804D0BAF12D0FC5
:100F700007D144F48074B9696D1C0E988847824685
:100F8000761EE00501D52D2100E02B2108F8011B7C
:100F9000CDF82C8021E00DF12901761E44F4007477
:100FA00088450CD2AAF1300010F0FF0088F800004C
:100FB00002D10B99884509D908F1010806E0E0053E
:100FC00001D5244801E042F20F708146B9696D1CD9
:100FD0000E98884782460F980560002E04DD504623
:100FE0000CF0B2F90028D6D1F9690E988847FF2095
:100FF0008BF8000088F800000020069007904B4610
:101000006A4608A906A8FFF777FEA00502D46FF08C
:1010100001002AE714F0240F0AD0E00714D1DDE91B
:1010200006123868031D3B600068C0E900120BE03F
:10103000DDE90601FFF77AFC0146E00704D13868D4
:10104000021D3A600068016028460EE70000144067
:101050000000F03FF1D8FFFF426842B1016811F88B
:10106000013B23B1521EC0E900121846704701210E
:10107000C160881E704742685AB1C368016843B9AD
:1010800083688B4205D0491E521CC0E90012002023
:1010900070474FF0FF3070470EB540F23342029276
:1010A0000022CDE900221346FFF738FD03B000BD52
:1010B00070B58C1810F8015B15F0070301D110F81A
:1010C000013B2A1106D110F8012B03E010F8016B47
:1010D00001F8016B5B1EF9D12B0705D40023521ECA
:1010E0000DD401F8013BFAE710F8013BCB1A921C32
:1010F00003E013F8015B01F8015B521EF9D5A14230
:10110000D8D3002070BD000000B59BB001210802BB
:1011100005F07EFC0121080205F08AFC00214FF455
:10112000807005F085FC0121084605F041FC012195
:10113000880505F03DFC002017904FF470601A9070
:101140004FF4804019908000189017A800F076F8AE
:101150004020159003208DF8580000208DF85A008B
:101160008DF8590015A92B4803F006FC00200F90BC
:1011700001208DF840008DF841000020119013905F
:1011800001208DF850000FA9234800F085F80723AF
:1011900001220621204800F0A9F8002000901E48F6
:1011A0004C3001901D4802900020039001200490D3
:1011B000002005904FF4806006904000079080006A
:1011C00008904011099000020A9000200B90032023
:1011D0000C9000200D900E906946114803F0EEF837
:1011E00010210F4802F098FF01210D4802F0AEFFD8
:1011F0000121094800F045F80121074800F036F8C0
:101200000121054800F00EF8034800F0CBF81BB0B0
:1012100000BD000000000240002001401600002038
:101220001064024021B1826842F00102826003E052
:10123000826822F001028260704700000021084AA3
:101240001168084A1140D0E900231A4383681A4301
:10125000C3681A431143044AC2F8041370470000DC
:1012600004230140E030FCFF0020014021B18268EE
:1012700042F48072826003E0826822F480728260AD
:10128000704721B1826842F40072826003E0826894
:1012900022F400728260704730B5024600200023BD
:1012A0005068104C20400D790C6844EA0524204316
:1012B000506090680C4C2040D1E903542C438D6859
:1012C0002C434D7944EA450420439060D06A20F4D1
:1012D00070000C7D641EE4B2234340EA0350D062E8
:1012E00030BD0000FFFEFFFCFDF7FFC0F0B5044677
:1012F0000D4600200021092D11DDE068A5F10A0648
:1013000006EB4607072606FA07F18843A5F10A0609
:1013100006EB460603FA06F10843E0600CE020699C
:1013200005EB4507072606FA07F1884305EB450656
:1013300003FA06F108432061072A0FDA606B561E94
:1013400006EB86071F2606FA07F18843561E06EBB2
:10135000860605FA06F10843606322E00D2A0FDADB
:10136000206BD61F06EB86071F2606FA07F1884377
:10137000D61F06EB860605FA06F10843206310E047
:10138000E06AA2F10D0606EB86071F2606FA07F1B2
:101390008843A2F10D0606EB860605FA06F108431E
:1013A000E062F0BD816841F080418160704710B516
:1013B0002DED028BB0EE408AB0EE480A0AF038FDFF
:1013C000BDEC028B10BD10B52DED028BB0EE408A46
:1013D000F0EE608AF0EE680AB0EE480A0AF0BEFD50
:1013E000BDEC028B10BD10B52DED028BB0EE408A26
:1013F000B0EE480AFEF75CFFBDEC028B10BDF0EECC
:10140000400AF5EEC00AF1EE10FA02DDB0EE600A15
:101410007047B1EE600AFBE718B19FED020A80ED5C
:10142000000A7047000000007047000070B52DED05
:101430000C8B84B006460C4615469FED990AF0EEDB
:10144000408A9FED970AB0EE409A9FED950AF0EE24
:1014500040BA9FED930AF0EE409A9FED910AB0EEEC
:1014600040AA0EB104B11DB904B0BDEC0C8B70BD27
:101470008C48FFF7D1FF8C48FFF7D6FF8A48D0EDA4
:10148000000A9FED8A1A60EE810AB0EE600A00F051
:1014900039F9F0EE408A28EEA80AF0EE408A824838
:1014A000D0ED000AB0EE001A60EE810A9FED7F1ABF
:1014B00060EE810AB0EE600A00F024F9B0EE409AC6
:1014C00029EE090AB0EE409ADFED790AB7EE000A7C
:1014D00000EEA80ADFED770A00EEC90ADFED760A12
:1014E00020EE200A754880ED000A6E4890ED000A53
:1014F000DFED730A80EE201AB7EE000A31EE000A23
:1015000020EE000A6D48D0ED000A80EE801A6D488A
:1015100080ED001A94ED000AB5EEC00AF1EE10FA63
:101520000DD194ED010AB5EEC00AF1EE10FA06D124
:1015300094ED020AB5EEC00AF1EE10FA46D09FED26
:10154000580AB0EE408A0020019002900390D4ED3A
:10155000000A60EEA00A94ED011AD4ED011A41EEE2
:10156000210A94ED021AD4ED021A41EE210AB0EEDE
:10157000600A00F0A9F8B0EE408A94ED000A20EE6F
:10158000080A8DED010A94ED010A20EE080A8DED9E
:10159000020A94ED020A20EE080A8DED030ADDED41
:1015A000010AF1EE600AB0EE600AFFF700FFF0EE0C
:1015B000409A9DED031AF0EE410A9DED021AB0EE3D
:1015C000410AFFF700FFB0EE40AA07E09FED340AA2
:1015D000F0EE409A9FED320AB0EE40AA95ED000A77
:1015E000B5EEC00AF1EE10FA0DD195ED010AB5EE97
:1015F000C00AF1EE10FA06D195ED020AB5EEC00A66
:10160000F1EE10FA3CD0B0EE690A00F07BF8B0EED3
:10161000408AB0EE690AFFF7E6FEB0EE40DAB0EEBF
:101620004A0A00F06FF8F0EE40AAB0EE4A0AFFF75F
:10163000DAFEB0EE40BA28EE2A0AD5ED010A20EE15
:10164000200AD5ED000A0DEE200A68EE0B0A95ED92
:10165000021A00EE810AB0EE40CA95ED010A20EEB2
:101660000B0AD5ED020A0AEEE00AF0EE40CAF0EEEF
:101670006C0AB0EE4C0AFFF7A6FEF0EE40BA03E0AB
:101680009FED070AF0EE40BAB0EE4A1AF0EE690A92
:10169000B0EE6B0A30460DF0E3FE00BFE4E600005A
:1016A00000000000740400207804002035FA8E3C0D
:1016B000C1BFAD3B9DF8C5362F7C1C417C0400208A
:1016C000506CC24A80040020F0EE400AF6EE001A88
:1016D00060EEA11AB0EE611AB0EE600A10EE100AC8
:1016E0000749A1EB600000EE100A21EE002AF7EE98
:1016F000081A42EE401A61EE801AB0EE610A704795
:10170000DF59375F10B52DED028BB0EE408AB0EE99
:10171000480AFEF709FEBDEC028B10BD2DE9F04131
:101720002DED028B9AB00546B0EE408A0E46174664
:1017300098460020179018901990149015901690C4
:101740004DB146B13FB1B8F1000F04D0B5EEC08A3B
:10175000F1EE10FA05D100201AB0BDEC028BBDE805
:10176000F08196ED000A8DED170A96ED010A8DEDD8
:10177000180A96ED020A8DED190A97ED000A8DED13
:10178000140A97ED010A8DED150A97ED020A8DED09
:10179000160A17AA14A928460DF082FB402104A8B6
:1017A000FEF748FE00200090019002900390002474
:1017B00017A904A82FF0D8FA00BF30E004A800EB66
:1017C000041090ED000AD5ED000A20EE200A04A8CE
:1017D00000EB0410D0ED010A95ED011A00EE810A2C
:1017E00004A800EB0410D0ED020A95ED021A00EEF9
:1017F000810A04A800EB0410D0ED030A95ED031A4A
:1018000000EE810A20EE080AF0EE000A80EE201AAF
:10181000684600EB840080ED001A601CC4B2042C02
:10182000CCDB002410E005EB840090ED000A684654
:1018300000EB8400D0ED000A30EE200A05EB8400B6
:1018400080ED000A601CC4B2042CECDB28462CF0AE
:1018500013FB012080E7000010B52DED048B86B04E
:101860000446B0EE408AF0EE608AB0EE419AF0EEA7
:10187000619A00948DED028B8DED049B1549002338
:101880005A1ED1F8AC00194630F08EF8684605F0C3
:1018900057F800210F4880F8A91000F009FF00F068
:1018A000EDFE0C4900231A46D1F8AC00194630F081
:1018B00083F9084890F8A80000EB4002054818306A
:1018C00000EBC201012006F031FF06B0BDEC048B35
:1018D00010BD0000E02102202DE9F04707468846B0
:1018E00091461E464FF0000A244900235A1ED1F8A3
:1018F000B800194630F058F8384603F023F80028AD
:101900002ED114202CF0F2F8054615B94FF0010A3B
:1019100025E028462FF09BFA10202CF0E7F804462B
:101920002CB928462FF0F4FA4FF0010A16E0256092
:101930002C606760C4F8088084F80C9066732946B0
:101940000E482FF0A1FA26B90121204604F0E8FD47
:1019500004E00A48007D401C0849087500BF01E00A
:101960004FF0050A054900231A46D1F8B800194678
:1019700030F022F95046BDE8F0870000E021022057
:1019800000BFFEE700B58BB00121082005F010F87C
:101990000121480605F01CF80121480605F028F849
:1019A00000214FF0007005F023F803200990022079
:1019B0008DF8280000208DF82A0003208DF82900DA
:1019C00001208DF82B0009A92D4802F0D5FF09222E
:1019D00000212B4803F018F809220121284803F0C0
:1019E00013F800208DF81E0001208DF81F00002044
:1019F0008DF820008DF821008DF822008DF823004D
:101A00008DF81A008DF81B0005208DF81C000120B0
:101A10008DF81D000520ADF8180006A9194800F042
:101A200098FC00208DF812008DF8130001208DF82D
:101A300014000020ADF80800ADF80A00ADF80C0065
:101A4000ADF80E00ADF8100001208DF8150002A8C9
:101A500000F062FB012202210A4800F071FC142010
:101A60008DF8040001208DF8050000208DF8060097
:101A700001208DF8070001A804F0C0FD0BB000BDE7
:101A8000000C0240006400402DE9F04186B007469A
:101A90000C4615461E46DDF8308000208DF80D00FE
:101AA0008DF80C0008208DF80E000197200A8DF8A3
:101AB0000F008DF81040290A8DF811108DF8125082
:101AC000310A8DF813108DF814604FEA18218DF843
:101AD00015108DF8168001A9024800F03CFD06B0F3
:101AE000BDE8F081006400400168A1F201211129E4
:101AF00021D2DFE801F009213951698199B1E2E28F
:101B0000E2E2E2E2E2E2C900017BC27A01EB0221F9
:101B100009B26B4A1180827B417B02EB012109B241
:101B2000674A5180027CC17B02EB012109B2644A01
:101B30009180417CD180C0E0017BC27A01EB02211F
:101B400009B25F4A1181827B417B02EB01210AB21B
:101B50005B494A81027CC17B02EB01210AB25849F0
:101B60008A81427CCA81A8E0017BC27A01EB022112
:101B700009B2534A1182827B417B02EB01210AB2F6
:101B80004F494A82027CC17B02EB01210AB24C49D7
:101B90008A82427CCA8290E0017BC27A01EB0221F8
:101BA00009B2474A1183827B417B02EB01210AB2D1
:101BB00043494A83027CC17B02EB01210AB24049BE
:101BC0008A83427CCA8378E0017BC27A01EB0221DE
:101BD00009B23B4A1184827B417B02EB01210AB2AC
:101BE00037494A84027CC17B02EB01210AB23449A5
:101BF0008A84427CCA8460E0017BC27A01EB0221C4
:101C000009B22F4A1185827B417B02EB01210AB286
:101C10002B494A85027CC17B02EB01210AB228498B
:101C20008A85427CCA8548E0017BC27A01EB0221A9
:101C300009B2234A1186827B417B02EB01210AB261
:101C40001F494A86027CC17B02EB01210AB21C4972
:101C50008A86427CCA8630E0017BC27A01EB02218F
:101C600009B2174A1187827B417B02EB01210AB23C
:101C700013494A87027CC17B02EB01210AB2104959
:101C80008A87427CCA8718E0C27A017B02EB012175
:101C90000C4A1180427B817B02EB0121094A518071
:101CA000C27B017C02EB0121064A9180427C817C4F
:101CB00002EB0121034AD18000BF00BF7047000042
:101CC000940400200C00002000B585B002210948D2
:101CD00000F0A6FA58B10221064800F0C9F96A4698
:101CE0000021044800F0BFFB6846FFF7FDFE05B089
:101CF00000BD00000064004000B58BB0012102204F
:101D000004F056FE0121880604F062FE01218806D7
:101D100004F06EFE00214FF0806004F069FE4FF485
:101D20004050099002208DF8280000208DF82A00EC
:101D300003208DF8290001208DF82B0009A92E48D9
:101D400002F01AFE09220C212B4802F05DFE092246
:101D50000D21294802F058FE00208DF81E000120B8
:101D60008DF81F0000208DF820008DF821008DF8DF
:101D700022008DF823008DF81A008DF81B00052035
:101D80008DF81C0001208DF81D000520ADF818000D
:101D900006A91A4800F0DDFA0E208DF81200002086
:101DA0008DF8130001208DF814000020ADF8080014
:101DB000ADF80A00ADF80C00ADF80E00ADF810005B
:101DC00001208DF8150002A800F0A6F901220221D9
:101DD0000A4800F0B5FA40208DF8040001208DF883
:101DE000050000208DF8060001208DF8070001A8ED
:101DF00004F004FC0BB000BD000402400068004089
:101E00002DE9F04186B007460C4615461E46DDF822
:101E1000308000208DF80D008DF80C0008208DF822
:101E20000E000197200A8DF80F008DF81040290A46
:101E30008DF811108DF81250310A8DF813108DF8AD
:101E400014604FEA18218DF815108DF8168001A93D
:101E5000024800F080FB06B0BDE8F0810068004059
:101E60000168A1F20121082920D2DFE801F0042055
:101E70003C587490ACC8017BC27A01EB022109B2D4
:101E80006E4AA2F84010827B417B02EB01210AB22C
:101E90006A49A1F84220027CC17B02EB01210AB20F
:101EA0006649A1F84420427CA1F84620C3E0017BAA
:101EB000C27A01EB022109B2604AA2F84810827B83
:101EC000417B02EB01210AB25C49A1F84A20027C65
:101ED000C17B02EB01210AB25849A1F84C20427C97
:101EE000A1F84E20A7E0017BC27A01EB022109B2E2
:101EF000524AA2F85010827B417B02EB01210AB2C8
:101F00004E49A1F85220027CC17B02EB01210AB2AA
:101F10004A49A1F85420427CA1F856208BE0017B6D
:101F2000C27A01EB022109B2444AA2F85810827B1E
:101F3000417B02EB01210AB24049A1F85A20027C00
:101F4000C17B02EB01210AB23C49A1F85C20427C32
:101F5000A1F85E206FE0017BC27A01EB022109B299
:101F6000364AA2F86010827B417B02EB01210AB263
:101F70003249A1F86220027CC17B02EB01210AB246
:101F80002E49A1F86420427CA1F8662053E0017B31
:101F9000C27A01EB022109B2284AA2F86810827BBA
:101FA000417B02EB01210AB22449A1F86A20027C9C
:101FB000C17B02EB01210AB22049A1F86C20427CCE
:101FC000A1F86E2037E0017BC27A01EB022109B251
:101FD0001A4AA2F87010827B417B02EB01210AB2FF
:101FE0001649A1F87220027CC17B02EB01210AB2E2
:101FF0001249A1F87420427CA1F876201BE0017BF5
:10200000C27A01EB022109B20C4AA2F87810827B55
:10201000417B02EB01210AB20849A1F87A20027C37
:10202000C17B02EB01210AB20449A1F87C20427C69
:10203000A1F87E2000BF00BF70470000940400207C
:1020400000B585B00221094800F0EAF858B1022134
:10205000064800F00DF86A460021044800F003FA33
:102060006846FFF7FDFE05B000BD000000680040B7
:10207000B1F5007F3AD00FDC202928D006DC0129F9
:102080001CD004291DD0082940D11DE0402921D0B1
:10209000B1F5807F3AD126E0B1F5004F31D006DCB2
:1020A000B1F5806F25D0B1F5006F2FD124E0B1F5E7
:1020B000803F12D0B1F5003F28D111E0154A82606F
:1020C00025E00822C26022E01022C2601FE0082240
:1020D00002611CE01022026119E00822426016E051
:1020E0001022426013E00422426010E004224260A9
:1020F0000DE0042242600AE0002282610422426074
:1021000005E0002282610422426000E000BF00BFBF
:10211000704700000101010010B50021837A0122FF
:1021200002FA03F13D4A126842F001023B4B1A6089
:102130003A4A1C3212688A43384B1C331A60027BBD
:10214000CAB9364A0C3212688A43344B0C331A60CF
:102150004288C38842EA0343304A4032847A42F8D4
:1021600034300288838842EA03432C4A4032847A1E
:1021700002EBC4025360027B012A19D1274A0C32B8
:1021800012680A43254B0C331A604288038842EADE
:102190000343224A4032847A42F83430C28883882A
:1021A00042EA03431D4A4032847A02EBC402536080
:1021B000C27A3AB9194A121D12688A43174B1B1D7D
:1021C0001A6006E0154A121D12680A43134B1B1DC4
:1021D0001A60028932B9114A143212688A430F4BCD
:1021E00014331A600289012A06D10C4A143212688B
:1021F0000A430A4B14331A60427B012A06D1074A6C
:102200001C3212680A43054B1C331A60034A1268D9
:1022100022F00102014B1A6010BD00000066004070
:1022200070B504460D46002660692840002871D02C
:10223000B5F5807F5CD010DC082D35D006DC012D93
:1022400020D0022D24D0042D72D127E0102D31D0C2
:10225000202D35D0402D6BD138E0B5F5004F60D042
:1022600009DCB5F5007F49D0B5F5806F4CD0B5F5E8
:10227000006F5DD14FE0B5F5803F2DD0B5F5003F43
:1022800056D12FE0A0682D4900F0FCFF064651E032
:10229000E068032100F0F6FF06464BE0E068082105
:1022A00000F0F0FF064645E0E068102100F0EAFF8C
:1022B00006463FE02069032100F0E4FF064639E0CE
:1022C0002069082100F0DEFF064633E02069102176
:1022D00000F0D8FF06462DE06068082100F0D2FF2C
:1022E000064627E06068102100F0CCFF064621E09A
:1022F000A069012100F0C6FF06461BE0A06902218B
:1023000000F0C0FF064615E0A069042100F0BAFF06
:1023100006460FE00FE0A069702100F0B3FF06460B
:1023200008E06068042100F0ADFF064602E0FFE728
:10233000002600BF00E00026304670BD010101000C
:102340001AB143690B43436102E043698B43436124
:10235000704730B5024600200023146824F00204C0
:102360001460146844F00104146000E05B1C5468BD
:1023700004F001041CB94FF6FF74A342F6D154686F
:1023800004F001040CB900206CE08C79012C04D11C
:10239000146844F08004146003E0146824F080049E
:1023A0001460CC79012C04D1146844F0400414600A
:1023B00003E0146824F0400414600C7A012C04D16A
:1023C000146844F02004146003E0146824F020042E
:1023D00014604C7A012C04D1146844F01004146089
:1023E00003E0146824F0100414608C7A012C04D1EA
:1023F000146844F00804146003E0146824F008042E
:102400001460CC7A012C04D1146844F004041460E4
:1024100003E0146824F0040414608C78A407CD78D9
:1024200044EA05640D7944EA05444D7944EA0554CB
:102430000D886D1E2C43D461146824F001041460CF
:10244000002300E05B1C546804F001041CB14FF64B
:10245000FF74A342F6D1546804F001040CB10020CB
:1024600000E0012030BD10B500F5D87303EB011377
:102470001B6803F004031372137A53B900F5D87381
:1024800003EB01131B6840F2FF7404EA535313601B
:1024900009E000F5D87303EB01131B686FF060448B
:1024A00004EAD303536000F5D87303EB01131B68F0
:1024B00003F00203537200F5D87303EB01135B685A
:1024C00003F00F03937200F5D87303EB01135B68FD
:1024D0001B0AD37400F5D87303EB01139B68D37206
:1024E00000F5D87303EB01139B681C0A147300F505
:1024F000D87303EB01139B681C0C547300F5D8735D
:1025000003EB01139B681B0E937300F5D87303EB69
:102510000113DB68D37300F5D87303EB0113DB6899
:102520001C0A147400F5D87303EB0113DB681C0C50
:10253000547400F5D87303EB0113DB681B0E93741E
:1025400021B9C36843F02003C36003E0036943F08B
:102550002003036110BD10B502460020936803F00C
:102560008063B3F1806F00D110E0936803F00063E3
:10257000B3F1006F01D1012008E0936803F08053AC
:10258000B3F1805F01D1022000E00420042874D060
:1025900002F5C07303EB00131B6803F0010402F59E
:1025A000C07303EB00131C600B7A7BB94B7A0C8869
:1025B00043EA445302F5C07404EB00142468234337
:1025C00002F5C07404EB0014236010E00B7A4C6831
:1025D00043EAC4034C7A234302F5C07404EB0014AD
:1025E0002468234302F5C07404EB001423608B7A43
:1025F00003F00F038B7202F5C07303EB00135B68EB
:1026000023F00F0402F5C07303EB00135C6002F5C6
:10261000C07303EB00135B688C7A234302F5C0742C
:1026200004EB001463608B7B1C064B7B44EA034481
:102630000B7B44EA0323CC7A234302F5C07404EBFA
:102640000014A3608B7C1C064B7C44EA03440B7C87
:1026500044EA0323CC7B234302F5C07404EB00144B
:10266000E36002F5C07303EB00131B6843F0010441
:1026700002F5C07303EB00131C6010BD00B50B48DE
:1026800090F8A900002801DD012000E000200246AA
:1026900022B10021052006F049F803E000210420C2
:1026A00006F044F8014880F8B12000BDE021022086
:1026B00000B50B4890F8A800002801DD012000E0DB
:1026C0000020024622B10021032006F02FF803E08B
:1026D0000021022006F02AF8014880F8B02000BD51
:1026E000E021022010B504460023062204F1600117
:1026F00058A0FFF7F1F80023062204F164015AA064
:10270000FFF7EAF80023062204F168015BA0FFF757
:10271000E3F80023062204F510715DA0FFF7DCF852
:102720000023062204F511715DA0FFF7D5F8002300
:10273000062204F512715EA0FFF7CEF801230622EF
:1027400004F140015EA0FFF7C7F80123062204F15F
:10275000440160A0FFF7C0F80123062204F14801FC
:1027600061A0FFF7B9F80123062204F5327164A0D5
:10277000FFF7B2F80123062204F5337166A0FFF7D4
:10278000ABF80123062204F5337169A0FFF7A4F822
:102790000123062204F534716BA0FFF79DF8012395
:1027A000062204F52E716EA0FFF796F8012306228B
:1027B00004F52F7171A0FFF78FF80123062204F5AD
:1027C000307175A0FFF788F80123062204F53171F6
:1027D00078A0FFF781F80123062204F536717CA06A
:1027E000FFF77AF80123062204F5377180A0FFF77E
:1027F00073F80123062204F5387185A0FFF76CF801
:102800000123062204F5397189A0FFF765F800233A
:10281000062204F130018EA0FFF75EF800230622A5
:1028200004F134018FA0FFF757F80023062204F1CA
:10283000380191A0FFF750F80023062204F13C0173
:1028400093A0FFF749F801230022214697A0FFF744
:1028500043F810BD43686173736973204D6F746FE3
:1028600072204B700000000043686173736973202D
:102870004D6F746F72204B690000000043686173F4
:10288000736973204D6F746F72204B6400000000F9
:1028900043686173736973205475726E204B7000C6
:1028A00043686173736973205475726E204B6900BD
:1028B00043686173736973205475726E204B6400B2
:1028C0004368617373697320582053706565642091
:1028D00053657400436861737369732059205370A2
:1028E0006565642053657400436861737369735F41
:1028F000575A5F53706565645F536574000000004C
:1029000043686173736973204D6F746F7231205324
:10291000706565640000000043686173736973202B
:102920004D6F746F72322053706565640000000053
:1029300043686173736973204D6F746F72332053F2
:1029400070656564000000004368617373697320FB
:102950004D6F746F72342053706565640000000021
:1029600043686173736973204D6F746F72312053C4
:1029700070656564205365740000000043686173EE
:10298000736973204D6F746F723220537065656484
:1029900020536574000000004368617373697320FD
:1029A0004D6F746F72332053706565642053657486
:1029B0000000000043686173736973204D6F746F8A
:1029C0007234205370656564205365740000000004
:1029D00043686173736973204D6F746F7231204760
:1029E0006976656E2043757272656E740000000032
:1029F00043686173736973204D6F746F723220473F
:102A00006976656E2043757272656E740000000011
:102A100043686173736973204D6F746F723320471D
:102A20006976656E2043757272656E7400000000F1
:102A300043686173736973204D6F746F72342047FC
:102A40006976656E2043757272656E7400000000D1
:102A5000436861737369732058204D617820537007
:102A600065656400436861737369732059204D6123
:102A700078205370656564004368617373697320DF
:102A8000575A204D6178205370656564000000003E
:102A90004368617373697320575A205370696E20BD
:102AA0004D61782053706565640000004368617370
:102AB000736973204D6F64650000000010B5044613
:102AC000207807281ED2DFE800F004080C10141547
:102AD0001900204600F0FEFA14E0204600F07EF9CE
:102AE00010E0204600F08AF90CE0204600F0F4F8EF
:102AF00008E000BF204600F013FA00BF204600F0B7
:102B000085FA00BF00BF204600F044FB10BD000066
:102B10008169B1F9021000EE101AB8EEC00ADFEDBB
:102B2000210A20EE200A80EDB20AC169B1F9021033
:102B300000EE101AB8EEC00ADFED1A0A20EE200AE5
:102B400080EDB30A016AB1F9021000EE101AB8EE76
:102B5000C00ADFED140A20EE200A80EDB40A416AB3
:102B6000B1F9021000EE101AB8EEC00ADFED0D0A3E
:102B700020EE200A80EDB50A816AD1F85710C0F81E
:102B8000EC12816AB1F85B10C0F8F012D0F8F012C4
:102B90003C2903DDFA21C0F8F81202E03C21C0F81C
:102BA000F81270471792A63A10B50446002020701C
:102BB00001234FF4FA62D1009FED451AF2EE040AA8
:102BC0009FED440A04F1600029F0D4FA01234FF488
:102BD000FA62D1009FED3E1AF2EE040A9FED3D0A23
:102BE00004F1D80029F0C6FA01234FF4FA62D100AB
:102BF0009FED371AF2EE040A9FED360A04F5A8702D
:102C000029F0B8FA01234FF4FA62D1009FED301A8F
:102C1000F2EE040A9FED2F0A04F5E47029F0AAFAF7
:102C2000012300220521B7EE001ADFED290AB2EEDA
:102C3000040A04F5107029F09DFA40F201210120E8
:102C400001F058FFA06140F20221012001F052FF83
:102C5000E06140F20321012001F04CFF20624FF4BB
:102C60000171012001F046FF606201F03FFFE06268
:102C7000002010E09FED160A04F52E7101EB800193
:102C800081ED000A9FED120A04F5367101EB800117
:102C900081ED000A401C0428ECDB01F09DFFE0649C
:102CA00001F078FF606101F09BFFA062B1EE040AC1
:102CB00084ED0C0AB1EE040A84ED0D0AB1EE040AAB
:102CC00084ED120AB2EE040A84ED0F0A10BD000072
:102CD0000000000000803B4610B52DED088B82B04F
:102CE00004469FED390A8DED010A9FED370A8DEDFF
:102CF000000A9FED350AF0EE409A6A4601A9204687
:102D000004F024F89FED300AB0EE408AE06C90EDBC
:102D1000000A10EE101A0846FDF7C5FD41EC1B0B2A
:102D2000B0EE4B0AF0EE6B0A09F08AFAB0EE40AA58
:102D3000F0EE60AA9FED250B53EC102B51EC1A0B13
:102D4000FDF7DCFD05D2E06C90ED000AB0EE408AA4
:102D500003E09FED1D0AB0EE408AB1EE480AFDF790
:102D6000E3FAF0EE408AB1EE480AFDF7A1FAB0EEC0
:102D7000409A9DED010A29EE000ADDED000A08EEF9
:102D8000A00A84ED100AB1EE680ADDED010A20EE1A
:102D9000200ADDED000A09EE200A84ED110ADFEDBC
:102DA0000D1A9FED0D1ADFED080AB0EE480A04F582
:102DB000107029F05BF9B1EE400A84ED120A02B0FE
:102DC000BDEC088B10BD0000000000007B14AE4776
:102DD000E17A943FDB0F49C0DB0F49409FED060AC3
:102DE00080ED100A9FED040A80ED110A9FED020AA2
:102DF00080ED120A70470000000000003EB5044656
:102E00009FED100A8DED020A9FED0E0A8DED010A6D
:102E10009FED0C0A8DED000A01AA02A9204603F0DD
:102E200095FF6946204603F009FF9DED020A84EDF7
:102E3000100A9DED010A84ED110A9DED000A84ED52
:102E4000120A3EBD000000004169C97A022902D180
:102E50000021017058E04169C97A032902D1022199
:102E6000017051E04169C97A01294DD190F8EA1207
:102E7000032902D00178012902D10321017043E026
:102E800090F8E81201F0800181B94169097D01F0F3
:102E9000800159B10178042902D00178052902D1B5
:102EA0000321017030E0042101702DE090F8E81258
:102EB00001F0400181B94169097D01F0400159B13A
:102EC0000178042902D00178052902D1032101707B
:102ED0001AE00521017017E090F8E81201F00601F0
:102EE00091B94169097D01F0060169B101780629AE
:102EF00002D10321017007E0062101700021416029
:102F00009FED060A80ED020A4169898AA0F8E8125D
:102F10004169C97A80F8EA12704700000000000099
:102F200010B52DED048B82B004469FED370A8DED70
:102F3000010A9FED350A8DED000A9FED330AB0EED0
:102F4000409A6A4601A9204603F000FF9FED2E0A31
:102F500084ED120A6069007D00F0100088B12078CD
:102F6000052804D194ED0F0AB0EE409A1AE02078BB
:102F7000042817D194ED0F0AB1EE400AB0EE409A42
:102F800010E02078052804D194ED0E0AB0EE409AA6
:102F900008E02078042805D194ED0E0AB1EE400A2D
:102FA000B0EE409AE06CD0ED000AF1EE600AB0EEAF
:102FB000600AFDF7B9F9F0EE408AE06CD0ED000A46
:102FC000F1EE600AB0EE600AFDF772F9B0EE408AE9
:102FD0009DED010A28EE000ADDED000A08EEA00AC8
:102FE00084ED100AB1EE680ADDED010A20EE200A38
:102FF000DDED000A08EE200A84ED110A84ED129A34
:1030000002B0BDEC048B10BD0000000010B52DED2A
:10301000048B044694ED020AF7EE000AB4EEE00ACF
:10302000F1EE10FA16D26068A0B994ED020A10EE23
:10303000101A0846FDF737FC41EC190B9FED220BE7
:1030400053EC102BFDF751FA41EC180BFDF76EFC19
:10305000A0602AE06068B0F5FA6F03D06068401C99
:10306000606022E094ED020AB5EEC00AF1EE10FABB
:1030700014DD94ED020A10EE101A0846FDF713FC59
:1030800041EC190B9FED100B53EC102BFDF7CEFA12
:1030900041EC180BFDF74AFCA06006E000206060E0
:1030A0000B48006840420A490860D4ED020A08480B
:1030B00090ED000AB8EEC00A20EE800A84ED100AF6
:1030C000BDEC048B10BD00007B14AE47E17A743F69
:1030D000C00100209FED060A80ED100A9FED040A52
:1030E00080ED110A9FED020A80ED120A7047000080
:1030F0000000000010B50446207880B99FED240A36
:1031000084EDB60A9FED220A84EDB70A9FED200AEE
:1031100084EDB80A9FED1E0A84EDB90A37E094EDFC
:10312000AE1AF0EE410A94EDB21AB0EE410A04F183
:10313000600029F007F884EDB60A94EDAF1AF0EEBE
:10314000410A94EDB31AB0EE410A04F1D80028F018
:10315000F9FF84EDB70A94EDB01AF0EE410A94ED50
:10316000B41AB0EE410A04F5A87028F0EBFF84ED24
:10317000B80A94EDB11AF0EE410A94EDB51AB0EE2A
:10318000410A04F5E47028F0DDFF84EDB90A10BDB2
:103190000000000090ED100AD0ED110A30EE600A38
:1031A000D0ED120A30EE600A80EDAE0A90ED100A02
:1031B000D0ED110A30EE200AD0ED120A30EE600A8E
:1031C00080EDAF0A90ED100AB1EE400AD0ED110A81
:1031D00030EE200AD0ED120A30EE600A80EDB00A1F
:1031E00090ED100AB1EE400AD0ED110A30EE600AFF
:1031F000D0ED120A30EE600A80EDB10A704700008F
:1032000008B564202DF032FF1D48FFF7CDFC1C48A7
:10321000FFF768FA33E01A48FFF716FE1848FFF781
:1032200077FC1748FFF74AFC1548FFF763FF14487F
:1032300090EDB90ABDEEC00A10EE100A80B20090FF
:103240000F4890EDB80ABDEEC00A10EE100A83B226
:103250000B4890EDB70ABDEEC00A10EE100A82B21C
:10326000074890EDB60ABDEEC00A10EE100A81B212
:103270004FF40070FEF7C4FD01202DF0F7FECAE701
:10328000D01E02200246002002EA01030BB10120F9
:1032900000E00020704770B500254FF4803400E056
:1032A000641E24B1802004F02BF80028F8D014B953
:1032B0000325284670BD40F2FF5003F0DDFF28468D
:1032C000F8E700002DE9F041064600274848056868
:1032D00001E04748056805F045000028F9D005F0F1
:1032E000040030B10327042003F0C6FF3846BDE8D0
:1032F000F08105F0010028B10127012003F0BCFF97
:103300003846F4E703F0F6FFB04202D01027384603
:10331000EDE740F2FF5003F0AFFF002004F010F89B
:1033200004463448204008B93846E0E704F000403D
:1033300008B11C20DBE704F0804008B10920D6E783
:1033400004F0005008B10A20D1E704F0805008B121
:103350000B20CCE704F0006008B10C20C7E704F0B4
:10336000806008B10D20C2E704F0807008B10E2023
:10337000BDE704F4000008B10F20B8E704F48000B2
:1033800008B11020B3E704F4001008B11120AEE733
:1033900004F4801008B11220A9E704F4002008B159
:1033A0001320A4E704F4802008B114209FE704F45C
:1033B000003008B115209AE704F4803008B11620D7
:1033C00095E704F4004008B1172090E704F480402A
:1033D00008B118208BE704F4005008B1192086E7E3
:1033E00004F0080008B11A2081E738467FE70000A2
:1033F000342C014008E0FFFD70B50025104804683A
:1034000001E00F48046804F045000028F9D004F0FA
:10341000040028B10325042003F02EFF284670BDC8
:1034200004F0010028B10125012003F025FF284602
:10343000F5E740F2FF5003F01FFF2846EFE70000DA
:10344000342C014070B500250B48046801E00A489F
:10345000046804F045000028F9D004F0040028B105
:103460000325042003F008FF284670BD40F2FF50FA
:1034700003F002FF2846F8E7342C01402DE9F04123
:1034800006460F464FF000082248056801E0214833
:10349000056805F045000028F9D005F0040038B1B2
:1034A0004FF00308042003F0E7FE4046BDE8F0813A
:1034B00005F0010030B14FF00108012003F0DCFEFF
:1034C0004046F3E703F016FFB04203D04FF0100878
:1034D0004046EBE740F2FF5003F0CEFE002003F041
:1034E0002FFF044604F4604018B9200C3880404691
:1034F000DCE704F4005008B11320D7E704F480405F
:1035000008B11020D2E704F4004008B10F20CDE745
:103510004046CBE7342C014070B500264FF480358F
:103520000F48046802E06D1E0D48046804F0450071
:1035300008B9002DF7D115B104F0040028B1032615
:10354000042003F099FE304670BD04F0400028B11D
:103550000026402003F090FE3046F5E73046F3E7C2
:10356000342C01401CB50648092100234FF4007299
:10357000CDE9001003A106482EF07EFC00481CBDDA
:10358000C4010020446174615F5461736B000000EA
:10359000E14400081CB50648032100234FF4807263
:1035A000CDE9001003A106482EF066FC1CBD00000A
:1035B0000801002053746172745461737400000038
:1035C0004194000870B506460C4604F0800080283F
:1035D00008D104F07F0000EB800106F58E7000EB4F
:1035E000C10505E004EB840106F55D7000EBC10543
:1035F0000020A87004F07F002870C4F3C010687029
:103600002946304608F028F8002070BD2DE9F04129
:1036100006460D4690461F4605F08000802808D1DA
:1036200005F07F0000EB800106F58E7000EBC10411
:1036300007E005F07F0000EB800106F55D7000EB10
:10364000C10405F07F00207005F08000C0096070A3
:10365000C4F80880E770607808B12078E080022F15
:1036600001D1002020712146304607F0A9FF00203B
:10367000BDE8F0812DE9F04105460E461746984613
:1036800006F07F0000EB800105F55D7000EBC104E2
:10369000E760C4F814800020A061607006F07F002D
:1036A0002070E878012800D12761207820B92146D0
:1036B000284607F0A9FE03E02146284608F026F830
:1036C0000020BDE8F08108B500220092009A61F365
:1036D0000A12009202691268009B1A4303691A6079
:1036E00008BD70B506460C4604F08000802808D15D
:1036F00004F07F0000EB800106F58E7000EBC10541
:1037000005E004EB840106F55D7000EBC1050120C6
:10371000A87004F07F002870C4F3C01068702946B8
:10372000304607F0C1FF002070BD2DE9F04107468B
:103730000D461646984605F07F0000EB800107F520
:103740008E7000EBC1040120607005F07F002070D6
:10375000E66026610020A061C4F81480207820B9BA
:103760002146384607F050FE03E02146384607F070
:10377000CDFF0020BDE8F08130B587B00546594C3B
:10378000284607F007FE01A803F062F9029CE868EA
:10379000C0680590059820F4705005900598E96878
:1037A000C860284608F0DCF803280BD10020A87078
:1037B0004FF40070A880059820F4705000F5105068
:1037C00005907EE00120A8704020A88046488442F1
:1037D00009D34648844206D2059820F4705000F57B
:1037E000605005906DE04148844209D340488442CE
:1037F00006D2059820F4705000F55050059060E016
:103800003B48844209D33B48844206D2059820F4C1
:10381000705000F54050059053E03648844209D37B
:103820003548844206D2059820F4705000F5305097
:10383000059046E03048844209D33048844206D29D
:10384000059820F4705000F52050059039E02B4881
:10385000844209D32A48844206D2059820F4705045
:1038600000F5105005902CE02548844209D32548E6
:10387000844206D2059820F4705000F5005005905F
:103880001FE02048844209D31F48844206D205988D
:1038900020F4705000F5E050059012E01A48844280
:1038A00009D31A48844206D2059820F4705000F5D6
:1038B000C050059005E0059820F4705000F5A05028
:1038C00005900598E968C86000200690069820F4E5
:1038D000005000F5005006900698E9684861012004
:1038E00007B030BD007A030AC0E1E4000024F40010
:1038F000E0EC040100C31801002D310140A44C018B
:1039000000366E0140E2950180C3C90160600B0280
:10391000F8B50546002400200090284608F055F828
:10392000064681E006F0010000287BD0E1B228467F
:1039300000F0BEFA0090009800F0010030B30120C2
:1039400000FA04F72869406BB843296948630020EE
:103950000090009820F00100401C009005F1180034
:1039600050F8240000998160E1B232480068426852
:1039700028469047E878012808D13CB940F2111058
:10398000405D042802D1284607F0E9FD0098C0F305
:10399000C00060B100200090009820F008000830BE
:1039A000009005F1180050F82400009981600098FB
:1039B000C0F3001060B100200090009820F01000CB
:1039C0001030009005F1180050F824000099816033
:1039D0000098C0F3801060B100200090009820F0A3
:1039E00040004030009005F1180050F82400009984
:1039F00081600098C0F3400060B100200090009802
:103A000020F00200801C009005F1180050F82400FE
:103A1000009981600098C0F3C01018B12146284673
:103A200000F070FA641C7608002E7FF47BAF012052
:103A3000F8BD0000E00200207CB50446002500200F
:103A40000190204607F0C9FF06466FE006F001002E
:103A5000002869D0E9B2204607F0C7FF019001981D
:103A600000F00100C8B300200190019820F001008F
:103A7000401C019004F1540050F825000199816028
:103A8000E078012817D104F1540050F825000069AE
:103A9000009005EB850104F55D7000EBC1008068C6
:103AA0000099C1F31201411A05EB850204F55D701E
:103AB00000EBC2008161E9B21E480068026820463E
:103AC0009047E078012808D13DB940F21110005D1F
:103AD000052802D1204607F042FD0198C0F34000BE
:103AE00060B100200190019820F00200801C01903C
:103AF00004F1540050F82500019981600198C0F349
:103B0000C00088B10B4800688168204688470020C3
:103B10000190019820F008000830019004F1540051
:103B200050F82500019981606D1C7608002E8DD11A
:103B300001207CBDE00200203EB50446A07A78B1A9
:103B4000D4F80C0100680090009820F0020000906A
:103B5000009820F0010000900099D4F80C01016059
:103B600000200190019820F00100401C0190206984
:103B70004068019988432169486009480068816963
:103B80002046884700200290029820F0004000F173
:103B9000004002900298E168486101203EBD0000AB
:103BA000E00200207CB5044600200190019820F03E
:103BB000100010300190E068806901998843E16845
:103BC0008861E068006A0090009800F00F0000EB48
:103BD000800104F55D7000EBC1050098C0F343401F
:103BE00007282DD2DFE800F02C04051D1E2C1F0035
:103BF00027E00098C0F30A1090B10098C0F30A12B1
:103C00002046E96807F0FBFEE8680099C1F30A1155
:103C10000844E860A8690099C1F30A110844A86142
:103C20000FE00EE00DE0082204F2CC51204607F030
:103C3000E6FEA8690099C1F30A110844A86100E0F2
:103C400000BF00BFE068806901990843E1688861AE
:103C500001207CBD38B5044608480068C16820468C
:103C6000884700200090009820F00800083000905D
:103C70000098E1684861012038BD0000E0020020A2
:103C80001FB50446002000904FF48970005D00903D
:103C90002348006841692046884720698068019070
:103CA00000200390039820F4006000F5006003906A
:103CB0000398E1684861A07A70B3019800F00100B0
:103CC00050B340F21510005D012825D19DF8000089
:103CD000032821D100200290029820F00100401C0E
:103CE0000290D4F80C01006802990843D4F80C1132
:103CF0000860029820F00200801C0290D4F80C01A9
:103D0000006802990843D4F80C110860054800685F
:103D100040F0060003490860012004B010BD000017
:103D2000E002002010ED00E030B587B0044600202E
:103D3000029006900590049003900190029820F064
:103D40000100401C02902069406802998843216963
:103D500048600021204607F0D9FD00250BE0FF2137
:103D600004F1180050F82500816004F1540050F867
:103D7000250081606D1C6078A842F0D84FF0FF31BB
:103D80002069816106986FF30F00401C0690069829
:103D900080B200F58030069006992069C1610598CF
:103DA00020F0080008300590059820F00100401C24
:103DB0000590059820F00200801C05900599206967
:103DC0004161049820F00100401C0490049820F008
:103DD000080008300490049820F00200801C049031
:103DE000049920690161206900680390039820F418
:103DF000FE600390039920690160204607F0AFFB45
:103E000000200190019820F4805000F5805001902E
:103E10000198E168486104480068016920468847C4
:103E2000012007B030BD0000E002002038B5044694
:103E30000020009007480068C16920468847009824
:103E400020F4801000F5801000900098E16848612F
:103E5000012038BDE002002038B504460020009063
:103E600007480068016A20468847009820F400103F
:103E700000F5001000900098E1684861012038BD0D
:103E8000E002002038B50446E068406800900098E1
:103E9000C0F3800020B105480068816A2046884749
:103EA0000098E1684860012038BD0000E002002071
:103EB00030B5024615692B6915696C6B24FA01F55A
:103EC00005F0010543EAC51302F1180555F8215024
:103ED000AD6805EA030030BD38B5044608480068FF
:103EE000416A2046884700200090009820F08040DA
:103EF00000F1804000900098E1684861012038BDE1
:103F0000E00200202DE9F84306460F460025002078
:103F1000009007EB870106F58E7000EBC104D4E931
:103F20000501451AA068A84200D2A568E81C4FEA1E
:103F3000900906F1180050F827008069009029E0E8
:103F4000D4E90501451AA068A84200D2A568E81C7A
:103F50004FEA9009ABB2FAB23046E16807F07FFD54
:103F6000E0682844E060A0692844A06106F11800D8
:103F700050F8270080690090D4E90501884209D1F2
:103F80002178012000FA01F83069406B20EA08002E
:103F900031694863009880B2484506D9D4E90510D4
:103FA000884202D260690028CAD10120BDE8F883A6
:103FB00000B597B001214FF0401002F0F9FC01214B
:103FC000202002F025FD082209214D4800F01CFDAB
:103FD00008220E214A4800F017FD11A800F078FDD4
:103FE0004FF48440119002208DF8480000208DF895
:103FF0004A0002208DF8490001208DF84B0011A9DC
:104000003F4800F0B9FC3F4806F0CEFA4FF4E130EB
:1040100013900020ADF85000ADF85200ADF85400F8
:104020000C20ADF856000020ADF8580013A9354813
:1040300006F08EFB1021334806F098FA012240F278
:104040002441304806F05FFB012240212D4806F054
:10405000A2FA01212B4806F092FA47208DF8400081
:1040600005208DF8410000208DF8420001208DF8D8
:10407000430010A802F0C2FA0021234800F066F8BD
:10408000214800F06FF84FF0206001901D48001D9E
:1040900002901E48039000200490C8200590002044
:1040A00006904FF4806007900020089009904FF42C
:1040B00080700A904FF440300B9000200C900D90CF
:1040C0000E900F9001A9104800F078F900220F49D6
:1040D000C8310D4800F0FDF801210B4800F0EEF862
:1040E00001221021084800F04BF90021064800F099
:1040F0002DF80121044800F029F817B000BD000098
:10410000001802400014014028640240D02202201E
:1041100010B503F029FE10BD0246094B9A4201D2A8
:10412000084801E00648103801F000531BB1064B67
:104130000B40C36002E0044B0B40836070470000FB
:1041400010640240006002407D0F7D0F21B10268C3
:1041500042F00102026003E0026822F00102026004
:1041600070470000016821F0010101600021016039
:1041700041608160C1600161212141614A498842F9
:1041800004D13D21484A103A91608CE046491831EB
:10419000884205D14FF47461434A103A916082E03D
:1041A00041493031884205D14FF474113E4A103AEA
:1041B000916078E03C494831884205D14FF0746104
:1041C000394A103A91606EE037496031884204D133
:1041D0003649354A103AD16065E033497831884232
:1041E00004D13349304A103AD1605CE02E49903115
:1041F000884204D12F492C4A103AD16053E02A4911
:10420000A831884205D14FF03D51274A103AD1607C
:1042100049E02949884204D13D21274A083A1160E2
:1042200041E025491831884205D14FF47461224A92
:10423000083A116037E020493031884205D14FF407
:1042400074111D4A083A11602DE01B49483188421B
:1042500005D14FF07461184A083A116023E01649FD
:104260006031884204D11149134A121F11601AE0CB
:1042700011497831884204D10D490F4A121F11604B
:1042800011E00D499031884204D10A490A4A121FAF
:10429000116008E00849A831884204D14FF03D512F
:1042A000054A121F11607047106002403D00002057
:1042B000400F002000003D201064024021B1026840
:1042C00042F48022026003E0026822F4802202604D
:1042D000704722B1036843F40023036003E00368DE
:1042E00023F4002303600161704721B1026842F0AA
:1042F0002002026003E0026822F0200202607047A0
:104300000146486880B27047014600200A6802F4FE
:1043100000220AB1012000E00020704770B502467B
:10432000002000240025124EB24201D2114B01E0C0
:104330000F4B103B104E0E4036B11E2606EAD1241C
:10434000166806EA040502E0566906F0800501F0E9
:1043500000560EB15C6800E01C68084E344004EA68
:10436000010616B10DB1012000E0002070BD000073
:1043700010640240006002403C0F3C0F7D0F7D0F37
:1043800010B501F080034BB122B1436943F08003C3
:10439000436103E0436923F08003436180290BD02C
:1043A0002AB1036801F01E042343036004E003689C
:1043B00001F01E04A343036010BD000010B50022ED
:1043C0000268134B1A40CC680B6823434C692343A3
:1043D0008C692343CC6923430C6A23434C6A2343EF
:1043E0008C6A23434C6B23438C6B23431A43026038
:1043F000426922F00702D1E90B3423431A43426198
:104400000B6943604B6883608B68C36010BD00001C
:104410003F801CF00AB1016100E0C160704741605B
:10442000704700001CB511F071FA20B9012028492D
:1044300081F8BC0003E00020254981F8BC0003227C
:10444000002101202DF08CFA2149C1F8B800032287
:10445000002101202DF084FA1D49C1F8AC00002391
:104460001A46D1F8B80019462DF0A6FB18490023CA
:104470001A46D1F8AC0019462DF09EFB0022092106
:1044800014202DF06DFA1249C1F8C00000235A1E05
:10449000D1F8AC0019462DF087FAFEF7EFF8FEF7D9
:1044A00007F90B4900231A46D1F8AC0019462DF044
:1044B00083FB07482CF0BEFC064807F02FFC06489B
:1044C00001900648009068460BF0EAFA1CBD000017
:1044D000E021022009450008110F0308EDDA020867
:1044E000FFF7A0FF0CF002FEFFF754F80AE00020EF
:1044F0002CF0BAFF16F0BCF910B114F0CDFE01E0BB
:1045000014F0B0FEF3E7000010B50448006818B1DD
:10451000024800682DF0A0FE10BD0000C40100207C
:10452000704710B54FF4004000F024F840B102F09D
:1045300061FF012802D103F045F901E002F0CEFE4F
:104540004FF4004000F010F810BD000010B5054811
:10455000006810B1034800688047042000F004F8A8
:1045600010BD00006800002001490860704700008D
:10457000143C014001460020034A12680A400AB177
:10458000012000E000207047143C01400021234935
:104590008279002A3AD00A46126803689A430B4689
:1045A0001A600A1D126803689A430B1D1A6002798B
:1045B00011440A6803681A430A60184A08321268EC
:1045C00003689A43154B08331A601A1D1268036872
:1045D0009A43124B0C331A604279102A0ED11A1FDB
:1045E000126803681A430D4B08331A601A1D1268CB
:1045F00003681A43094B0C331A600DE007494279EE
:1046000011440A6803681A430A6005E002791144FC
:104610000A6803689A430A6070470000003C014042
:1046200001490860704700000C3C024070B5044628
:104630000A460026092502B909E0012A01D116021D
:1046400005E0022A01D1160201E04FF4407600F0A5
:104650009DF80546092D28D11548006820F44070C2
:10466000134908600846006830430860084600683F
:1046700020F0F80008600846006844F00201084392
:104680000B4908600846006840F48030086000F07C
:104690007DF805460648006820F0020004490860DD
:1046A0000846006820F0F8000860284670BD000049
:1046B000103C024009201349096801F48031B1F52A
:1046C000803F01D101201CE00E49096801F0100172
:1046D00009B1062015E00B49096801F4807109B1A0
:1046E00002200EE00749096801F0E00109B1072046
:1046F00007E00449096801F0020109B1082000E05F
:10470000092070470C3C02400348006840F000401C
:104710000149086070470000103C024030B5024675
:104720000C46092500F032F80546092D17D10D4831
:10473000006820F440700B49086008460068086073
:104740000846006840F001000860147000F01EF890
:1047500005460448006820F0010002490860284628
:1047600030BD0000103C02400548006800F00040E9
:1047700028B1044802490C390860034808607047B2
:10478000103C024023016745AB89EFCD08B50920F5
:104790000090FFF78FFF009002E0FFF78BFF009083
:1047A0009DF800000128F8D09DF8000008BD000029
:1047B0002DE9FC4107460D4600260024002000900C
:1047C000019008205B490860102048604020886004
:1047D0000020C8604FF480600861084602F0EEFDDA
:1047E0001020FEF76FFD044614B12046BDE8FC81A1
:1047F0005148008800044F49086037204860402035
:1048000088600020C8604FF480600861084602F0AC
:10481000D5FD3720FEF756FD04460CB12046E5E7EE
:104820004FF0FF304549086008204860302088601C
:104830000220C8600020086101204861084602F09B
:1048400033FD00203B4908603320486040208860E9
:104850000020C8604FF480600861084602F0AEFD99
:104860003320FEF72FFD04460CB12046BEE709E0D9
:104870004FF4001002F044FD20B102F099FD4DF814
:104880002600761C2E48006840F22A610840002865
:10489000EED0082002F034FD28B1082002F0ECFC34
:1048A00004242046A2E7022002F02AFD28B10220BB
:1048B00002F0E2FC0224204698E7202002F020FDCE
:1048C00028B1202002F0D8FC062420468EE74FF4C1
:1048D000007002F015FD30B14FF4007002F0CCFC16
:1048E0000724204682E740F2FF5002F0C5FC009802
:1048F0000006009901F47F4140EA0120009901F48B
:104900007F0140EA1120009940EA11606860019837
:104910000006019901F47F4140EA0120019901F468
:104920007F0140EA1120019940EA11602860204689
:104930005CE700000011002054000020141100204A
:10494000342C014070B505460DB9002070BD094CEE
:1049500000BF6468074808384068A04201D10020C1
:10496000F4E7266829467068FBF78CFD0028F0D133
:104970003046EBE7E8210220F0B50A46002100238B
:10498000002400BF3DE0012505FA01F3156805EAA2
:1049900003049C4234D105684F000326BE40B54352
:1049A000056015794E00B5400668354305601579F8
:1049B000012D02D01579022D16D185684F000326EE
:1049C000BE40B543856055794E00B5408668354395
:1049D0008560456801268E40B543456045689679F7
:1049E0008E40B6B235434560C5684F000326BE40D1
:1049F000B543C560D5794E00B540C6683543C5603E
:104A0000491C1029BFD3F0BDF0B5002300244D0789
:104A1000ED0E02FA05F3CE1000F1200555F82650F0
:104A20004E07F70E0F26BE40B543CF1000F120060B
:104A300046F82750CE1000F1200555F8265045EADB
:104A40000304CE1000F1200545F82640F0BD0246D3
:104A5000002013690B400BB1012000E000207047DB
:104A6000418370471CB50121022001F0A1FF012103
:104A7000202001F09DFF00224FF40071114800F04A
:104A800030F800224FF480610E4800F02AF801222D
:104A900040210D4800F025F84FF4C060009001203F
:104AA0008DF804008DF8050000208DF80700694698
:104AB0000448FFF761FF4020009069460248FFF775
:104AC0005BFF1CBD000402400014024001837047DC
:104AD0004FF6FF7101600021017141718171C17157
:104AE00070470AB1018300E0418370470048704776
:104AF0000C000020024612B1012A45D121E0A1F2AA
:104B0000012008281CD2DFE800F00406090C0F126F
:104B100015181F4870471E480830FBE71C48103026
:104B2000F8E71B481830F5E719482030F2E7184835
:104B30002830EFE716483030ECE715483830E9E721
:104B400022E0A1F2012008281DD2DFE800F00407CE
:104B50000A0D101316190E484030DBE70C48483098
:104B6000D8E70B485030D5E709485830D2E7084815
:104B70006030CFE706486830CCE705487030C9E7B9
:104B800003487830C6E700BF00BF0020C2E700003E
:104B90009404002000487047E81902200448C168C6
:104BA0004068884201D1002070470868FCE7000097
:104BB000E021022090F8CC1131B1B0F8CA1100EE1A
:104BC000101AB8EE400A7047B0F8AE1100EE101A95
:104BD000B8EE400AF7E70000004870473C1E02208C
:104BE0000048704780240220014608684268044853
:104BF0004068904201D1002070471068FCE7000037
:104C0000E0210220014691F8CC01002870D091EDFE
:104C1000750ADFED430AB4EEE00AF1EE10FA01DBAB
:104C20000020704791ED750AB5EEC00AF1EE10FA5A
:104C300028DB91ED750ADFED3B0AB4EEE00AF1EEF8
:104C400010FA1FD2B1F8D001322801DC0320E8E7C6
:104C5000B1F8D001642801DC0820E2E7B1F8D00106
:104C6000962801DC0C20DCE7B1F8D001B0F58C7F90
:104C700001DC1220D5E7B1F8D001B0F5C87F4CDCDB
:104C80001A20CEE791ED750ADFED260AB4EEE00AB0
:104C9000F1EE10FA2DDB91ED750AD1ED760A9FED5C
:104CA000221A71EE600AB4EEE00AF1EE10FA20D892
:104CB000B1F8D001322801DC0120B2E7B1F8D0010F
:104CC000642801DC0220ACE7B1F8D001962801DCB1
:104CD0000320A6E7B1F8D001B0F58C7F01DC0420F9
:104CE0009FE7B1F8D001B0F5C87F16DC052098E742
:104CF00013E091ED750AD1ED760A9FED0B1A71EE76
:104D0000600AB4EEE00AF1EE10FA06DDB1F8D00167
:104D10000A2290FBF2F0C0B283E791F8AC0180E781
:104D20000000BE42000070420000C8420146087BFD
:104D3000082811D2DFE800F004070A05080B0C0E62
:104D400000BF0120704700BF0220FBE700BF00BF8B
:104D50000420F7E70820F5E70020F3E710B52DED74
:104D6000028B044624B99FED2B0BBDEC028B10BDCA
:104D7000207B082844D2DFE800F0040B1219212917
:104D8000303BA1680878FBF749FD41EC180B3AE08D
:104D9000A1680888FBF742FD41EC180B33E0A168DD
:104DA0000868FBF73BFD41EC180B2CE0A16891F97A
:104DB0000000FBF722FD41EC180B24E0A168B1F9DB
:104DC0000000FBF71AFD41EC180B1CE0A168086815
:104DD000FBF713FD41EC180B15E0A06890ED000AFD
:104DE00010EE101A0846FBF75EFD41EC180B0AE0C6
:104DF000A06890ED000BB0EE408AF0EE608A02E011
:104E00009FED040BB1E700BFB0EE480AF0EE680A70
:104E1000ABE70000000000000000F87F10B52DEDAA
:104E2000028B04460E4900235A1ED1F8B8001946D9
:104E30002CF0BAFD2046FFF791FFB0EE408AF0EE6D
:104E4000608A074900231A46D1F8B80019462CF0A9
:104E5000B3FEB0EE480AF0EE680ABDEC028B10BD5E
:104E6000E021022010B504460023062204F180014F
:104E700063A0FCF731FD0023062204F1840167A042
:104E8000FCF72AFD0023062204F188016AA0FCF742
:104E900023FD0023062204F108016EA0FCF71CFD8F
:104EA0000023062204F10C0171A0FCF715FD00237C
:104EB000062204F1100175A0FCF70EFD0023062266
:104EC00004F5B87178A0FCF707FD0023062204F56D
:104ED000BA717CA0FCF700FD0023062204F5BC712A
:104EE00081A0FCF7F9FC0023062204F1F80185A05B
:104EF000FCF7F2FC0023062204F1FC0187A0FCF77A
:104F0000EBFC0023062204F580718AA0FCF7E4FC88
:104F10000123062204F584618CA0FCF7DDFC01234B
:104F2000062204F21C418FA0FCF7D6FC01230622C6
:104F300004F5856192A0FCF7CFFC0123062204F55D
:104F4000787196A0FCF7C8FC0123062204F577715E
:104F500098A0FCF7C1FC0123062204F57A719BA0FE
:104F6000FCF7BAFC0023062204F586619DA0FCF73D
:104F7000B3FC0023062204F57C71A0A0FCF7ACFC76
:104F80000123062204F24441A2A0FCF7A5FC012360
:104F9000062204F20441A8A0FCF79EFC012306228D
:104FA00004F57971ACA0FCF797FC0123062204F20A
:104FB0002441AFA0FCF790FC0023062204F58C618D
:104FC000B1A0FCF789FC0023062204F26441B3A0DF
:104FD000FCF782FC0023062204F58D61B4A0FCF7E7
:104FE0007BFC0023062204F26C41B7A0FCF774FCA2
:104FF000012300222146BAA0FCF76EFC10BD000080
:1050000047696D62616C205069746368204D6F74EC
:105010006F7220416E676C65204B700047696D624E
:10502000616C205069746368204D6F746F72204109
:105030006E676C65204B690047696D62616C20503A
:1050400069746368204D6F746F7220416E676C6580
:10505000204B640047696D62616C20596177204D77
:105060006F746F7220416E676C65204B700000009A
:1050700047696D62616C20596177204D6F746F7262
:1050800020416E676C65204B6900000047696D62C6
:10509000616C20596177204D6F746F7220416E678B
:1050A0006C65204B6400000047696D62616C2050A4
:1050B0006974636820494D5520416E676C65204BCB
:1050C0007000000047696D62616C2047696D626124
:1050D0006C20506974636820494D5520416E676C9F
:1050E00065204B690000000047696D62616C2050CB
:1050F0006974636820494D5520416E676C65204B8B
:105100006400000047696D62616C20596177204935
:105110004D5520416E676C65204B700047696D628C
:10512000616C2059617720494D5520416E676C654F
:10513000204B690047696D62616C20596177204995
:105140004D5520416E676C65204B640047696D6268
:10515000616C20506974636820494D5520416E6729
:105160006C65000047696D62616C2050697463680A
:10517000204D6F746F7220416E676C6500000000F7
:1051800047696D62616C205069746368204D6F746B
:105190006F722053706565640000000047696D629E
:1051A000616C2059617720494D5520416E676C65CF
:1051B0000000000047696D62616C20596177204DE5
:1051C0006F746F7220416E676C65000047696D6295
:1051D000616C20596177204D6F746F722053706538
:1051E0006564000047696D62616C20506974636892
:1051F000204D696420416E676C65000047696D62EF
:10520000616C20596177204D696420416E676C653F
:105210000000000047696D62616C2050697463682A
:10522000204D6F746F7220476976656E20437572EA
:1052300072656E740000000047696D62616C2059F0
:105240006177204D6F746F7220476976656E2043D9
:10525000757272656E74000047696D62616C2059E9
:10526000617720416E676C65205365740000000013
:1052700047696D62616C20506974636820416E6794
:105280006C6520536574000047696D62616C20593C
:1052900061772052632053656E00000047696D629C
:1052A000616C2050697463682052632053656E00FE
:1052B00047696D62616C20596177204D6F75736528
:1052C0002053656E0000000047696D62616C2050DC
:1052D00069746368204D6F7573652053656E0000B7
:1052E00047696D62616C204D6F64650010B52DEDEE
:1052F000088B82B004469FED970A8DED010A9FED61
:10530000950A8DED000A207801284DD0032804D09D
:1053100004280CD0072874D100E000BF01A9204662
:1053200001F016FE6946204601F058FCB1E001A9E3
:10533000204601F00DFE6946204601F04FFCD4EDF9
:10534000F78A94EDF81AF0EE410A94EDF91AB0EEEE
:10535000410A00F0C7FBB0EE408A94EDFD9AD4ED0F
:10536000FE9A38EE880ADDED010A30EE200AB4EE2E
:10537000C90AF1EE10FA05DD39EE680A30EE480A86
:105380008DED010A38EE880ADDED010A30EE200AC3
:10539000B4EEE90AF1EE10FA05D239EEE80A30EE81
:1053A000480A8DED010A74E094EDF70ADFED690A11
:1053B00030EEC00A10EE101A0846FBF774FA41EC02
:1053C0001B0BB0EE4B0AF0EE6B0A06F039FFB0EEA5
:1053D00040AAF0EE60AA9FED600B53EC102B51EC4D
:1053E0001A0BFBF78BFA0DD294EDF70ADFED590A91
:1053F00030EEC00ADFED5A0A20EE200A8DED010AD8
:105400000AE045E09FED530A8DED010AB7EE000A70
:1054100004F5806080ED140A04F5816090ED050AC2
:10542000DFED4C0A30EEC00A10EE101A0846FBF70A
:105430003AFA41EC1B0BB0EE4B0AF0EE6B0A06F0A9
:10544000FFFEB0EE40AAF0EE60AA9FED430B53ECD6
:10545000102B51EC1A0BFBF751FA0ED204F58160B8
:1054600090ED050ADFED3B0A30EEC00ADFED3D0AA4
:1054700020EE200A8DED000A09E09FED360A8DED41
:10548000000AB7EE000A04F5806080ED150A00E01E
:1054900000BF00BF94EDF90ADDED010A30EE200AED
:1054A00084EDF90A04F5816090ED070ADDED000A4C
:1054B00030EE200A80ED070A94EDF90ADFED2A0AA2
:1054C000B4EEE00AF1EE10FA08DB94EDF90ADFED34
:1054D000270A30EE600A84EDF90A10E094EDF90A2B
:1054E000DFED230AB4EEE00AF1EE10FA07D894EDEE
:1054F000F90ADFED1E0A30EE200A84EDF90A04F500
:10550000816090ED070ADFED180AB4EEE00AF1EED3
:1055100010FA08DB90ED070ADFED140A30EE600A9E
:1055200080ED070A12E004F5816090ED070ADFEDD7
:10553000100AB4EEE00AF1EE10FA07D890ED070A6F
:10554000DFED0A0A30EE200A80ED070A02B0BDEC5A
:10555000088B10BD00000000000000A09999B93F21
:105560006F12833A6F12833BDB0F4940DB0FC94058
:10557000DB0F49C000B50346187808281AD2DFE8C7
:1055800000F0150409080D191911184600F0E8F982
:1055900011E000BF184600F0E1FA0CE0184600F0F8
:1055A000C0F808E0184600F0A3F804E0184600F040
:1055B00091FB00E000BF00BF00BD000010B52DED65
:1055C000068B044640F20C40005901884FF483607A
:1055D00001534FF47370005901884FF476700153F2
:1055E000B4F9180400EE100AB8EEC00ADFED3C0A68
:1055F00030EE600A9FED3A1AC0EE010A9FED390ABB
:1056000020EE800AB0EE408AB4F9D80300EE100A0A
:10561000B8EEC00ADFED320A30EE600ADFED300A84
:1056200080EE201A9FED2F0A21EE000AF0EE408A4C
:1056300004F5816090ED0A0AF0EE400AB0EE480AE7
:1056400000F050FA04F5816080ED050A94EDFC0A43
:10565000F0EE400AB0EE680A00F044FA84EDF70A72
:1056600040F20C410959B1F90200FBF7C6F841ECD0
:105670001A0B9FED1D0B53EC102BFBF74FF841EC71
:10568000190BFBF753F94FF4856108514FF473710F
:105690000959B1F90200FBF7B0F841EC1A0B9FED84
:1056A000120B53EC102BFBF739F841EC190BFBF7FD
:1056B0003DF94FF47A7108514FF48260005990ED32
:1056C000000A04F5816080ED060A4FF474700059F9
:1056D00090ED000A84EDF80ABDEC068B10BD0000C9
:1056E00000008045DB0F4940CDCCCCCCCC8C774042
:1056F000012180F80814022180F8C81300F180010C
:1057000040F23C42115000F55471121D115000F14D
:10571000F8014FF47F72115000F53671121D1150CF
:10572000704700B5014601F5816090ED0C1AF0EE6E
:10573000410A90ED0B1AB0EE410A1C3000F0FAF964
:10574000012081F80804022081F8C80301F18000DB
:1057500040F23C42505001F55470121D505001F17E
:10576000F8004FF47F72505001F53670121D505002
:1057700000BD000010B504469FED653ADFED652AD7
:105780009FED652AF6EE001A0A221146B3EE041ABE
:10579000DFED620AB3EE020A04F1800026F02EFD6E
:1057A0009FED5F3ADFED5B2A9FED5B2AF6EE001A74
:1057B0000A2211469FED5B1ADFED580AB2EE040A89
:1057C00004F1080026F01AFD9FED513ADFED562A4C
:1057D0009FED512AF6EE001A002209219FED531A7F
:1057E000DFED4E0AB3EE040A04F1F80026F006FDE0
:1057F000012300220A219FED491ADFED480AB2EE8B
:10580000040A04F5B87026F0B5FC01230A221146FB
:105810009FED421ADFED410A9FED450A04F5F47051
:1058200026F0A8FC012341F2883246F2A8119FED30
:105830003B1ADFED400A9FED400A04F5367026F072
:1058400099FC012341F2883246F2A8119FED331AE8
:10585000F7EE000A9FED380A04F5547026F08AFC32
:1058600040F205210120FFF745F94FF4737108510B
:1058700040F206210120FFF73DF940F20C410851AA
:1058800012F068FC4FF47471085112F063FC001DB3
:105890004FF48261085112F061FC4FF475710851A8
:1058A00012F05CFC001D40F2144108519FED230AE8
:1058B00084EDFD0A9FED220A84EDFE0A9FED210A88
:1058C00004F5816080ED0B0A9FED1F0A80ED0C0A44
:1058D000FFF760F9C4F848049FED1C0A84EDFC0A48
:1058E0009FED1B0A04F5816080ED0A0A9FED190AFD
:1058F000083880ED190A9FED180A80ED180A9FED0F
:10590000170A80ED1B0A9FED150A80ED1A0A10BDDB
:105910000AD7233C6666663FCDCC4C3D00000000B4
:105920000AD7233D00007042CDCC4C3E0000C84356
:1059300000007A440000204200409C451F85CB3F78
:105940001F85CBBF1F85EB3E7B14AEBE666606404F
:1059500014AE073F0092384900BE874800409C467D
:10596000012180F8081480F8C81300F1800140F28A
:105970003C42115000F55471121D115000F1080104
:105980004FF47F72115000F53671121D115070479F
:10599000417802290CD00178022909D190EDF70A4B
:1059A00080EDF90A00F5816191ED050A81ED070AA4
:1059B000417803290CD00178032909D190EDF70A29
:1059C00080EDF90A00F5816191ED050A81ED070A84
:1059D000417804290CD00178042909D190EDF80A06
:1059E00080EDF90A00F5816191ED050A81ED070A64
:1059F000417807290CD00178072909D190EDF80AE0
:105A000080EDF90A00F5816191ED050A81ED070A43
:105A10000178012919D14178012916D090EDF70AB2
:105A200080EDF90A00F5816191ED050A81ED070A23
:105A30009FED070A083981ED150A9FED050A81EDF2
:105A4000140A9FED030A81ED130A01784170704733
:105A5000000000000178012923D100F5806191ED5B
:105A6000130ADFED1F0AB4EEE00AF1EE10FA18D2C5
:105A700091ED150AB5EEC00AF1EE10FA06D091EDDF
:105A8000140AB5EEC00AF1EE10FA0AD100F58061F1
:105A900091ED130AF7EE000A30EE200A81ED130AA9
:105AA0007047D0F84814C97A032901D101700EE07B
:105AB000D0F84814C97A012902D10721017006E003
:105AC000D0F84814C97A022901D100210170017867
:105AD00019B1417809B90121017000BFE0E7000068
